:020000040800F2
:1078000090330020D9780008290801085DD50008C8
:107810000000000000000000000000000000000068
:107820000000000000000000000000004D0A0108F8
:107830000000000000000000C5090108990A0108C5
:10784000EB780008EB780008390A0108EB780008AB
:10785000EB780008519B0008EB7800085B9B000860
:10786000EB780008EB78000839940008EB78000802
:10787000EB780008EB780008EB780008EB7800085C
:10788000EB780008EB780008EB78000800000000B7
:10789000EB780008EB780008EB780008EB7800083C
:1078A000EB780008EB780008EB7800084D1B010826
:1078B0005D1B0108C909010800000000EB78000801
:1078C0000448854601F08CF800480047DD5B01085C
:1078D000C046C04690330020044880470448004713
:1078E000FEE7FEE7FEE7FEE7FEE7FEE7F10C010834
:1078F000C178000830B50B46014600202022012443
:1079000009E00D46D5409D4205D31D469540491BD3
:107910002546954040191546521E002DF1DC30BD1C
:1079200070B500242546002801DA012440420029D0
:1079300001DA01254942FFF7DDFFAC4200D04042A9
:10794000002C00D0494270BDF0B51FB4064600209F
:1079500082B005464024019100901BE00199224627
:107960000F46304600F078FE049A059B801A994134
:1079700010D310461946224600F05EFE361A8F419B
:107980000197224601200021009F00F055FE381883
:107990004D4100902046641E0028DFDC019B0098CA
:1079A0002946324607B0F0BDF0B51FB486B00020BE
:1079B0000090019002900698069980B20490079872
:1079C000090C02040014114307900027089D099830
:1079D00006913E463C4603900398A9B20204000C6F
:1079E000039004982D0C154348430021224600F0D3
:1079F00023FEC719714110340E46402CECDB38468B
:107A0000029A00F019FE009A019B801800905941DB
:107A100002980191103002904028CCDB00980BB006
:107A2000F0BD000000487047EC06020810B504469F
:107A3000FFF7F8FF0068005DC007C00F10BD0146EA
:107A40006139192900D820387047000038B504463C
:107A5000C0681821401E4843A16840183C21484393
:107A6000616840183C2148432168451860690C2131
:107A70004843216940186921C900401A3021FFF7A5
:107A80004FFF114A50434219084600921A2902DB5F
:107A90000E49511800910C21FFF742FF0C4A504348
:107AA000009A801800900B4806E0491E425C074B84
:107AB0005A43009BD21800920029F6DC2146684602
:107AC00000F0F6FD009838BD801F86078051010048
:107AD0008033E101F006020870B50546002900D1A7
:107AE0000721541AFF206E30241D844209DB2868C8
:107AF00000F03DF9A04204DC2868401C2860012009
:107B000070BD002C05DA2868401E286000F02FF9AF
:107B1000041907212046FFF703FF401C70BDFFB585
:107B200089B009981D46002402920890A20002AB79
:107B300099580878491C995000280DD0252810D054
:107B40000A9901290AD9099908700998401C0990D5
:107B50000A98401E0A90F6E0641EF4E000200DB082
:107B6000F0BD0878491C99500028F5D03021022634
:107B700007915A28EFD020DC4D287BD014DC442814
:107B800042D008DC2528DBD041282AD042282ED03C
:107B90004328E0D130E046283DD047284ED0482841
:107BA00057D04928D7D156E0523803000AF0BFF920
:107BB000087779A1838693A1A3CB613803000AF0EB
:107BC000B6F9190E14192125C22F14C253C2C25678
:107BD0005BC261C26CC27274C287969BC2006FA006
:107BE00000E075A0A9690691BCE082A000E08D4884
:107BF0002969F8E78CA140E064216869FFF790FEED
:107C000013307CE0E8687AE08BA105E0E868069034
:107C10002020079074E08BA1641CA200995092E090
:107C20008B4869690818069006A8EA69A969FFF7F0
:107C300053FF64210698FFF773FE12E084486969D8
:107C400004260818069006A8EA69A969FFF744FF08
:107C500056E0A86853E0A8680C211730FFF760FED3
:107C6000491C06914CE005E00326E86900E028691C
:107C7000401C44E0686842E076A1641CA20002A8AF
:107C8000815060E0A8680C2801DA73A000E073A0BE
:107C9000641CA20002A9885055E071A1EDE773A110
:107CA000EBE728682BE073A1E7E7A8690126002825
:107CB00025D1072023E0A969E86912E064486969D1
:107CC0000818069006A8EA69A969FFF705FF16E0FB
:107CD0000126A86913E0A8690721801DFFF720FE8F
:107CE000E869401A0721C01DFFF71AFE07E052A1FC
:107CF000C3E761A1C1E704265548696908180690E1
:107D000000206946087101AF15E00A210698FFF7C7
:107D100007FE30317F1E39700A210698FFF700FEFA
:107D20000690002807D102E07F1E07983870304681
:107D3000761E0028F8DC3046761E0028E5DC641C40
:107D4000A10002A84750002C00DBEFE609990020B3
:107D5000087008990998401A01E70178401C002929
:107D6000FBD106994A1E06920029F6DC90E710B571
:107D7000044681070BD16421FFF7D2FD00290AD107
:107D8000FF2191312046FFF7CBFD002903D00020D1
:107D9000FF306E3010BD0120FAE7000053756E0011
:107DA0004D6F6E005475650057656400546875002A
:107DB000467269005361740053756E646179004DB9
:107DC0006F6E6461790054756573646179005765FD
:107DD000646E657364617900546875727364617967
:107DE00000467269646179005361747572646179E7
:107DF000000000004A616E00466562004D6172003D
:107E0000417072004D6179004A756E004A756C00D0
:107E100041756700536570004F6374004E6F7600C4
:107E200044656300FC060208256120256220256563
:107E30002025542025590000256D2F25642F2579F4
:107E40000000000025592D256D2D2564000000003F
:107E50006C0700000A000000414D0000504D00007A
:107E600025493A254D3A25532025700025483A25C5
:107E70004D0000000900000025483A254D3A2553E1
:107E80000000000010B5034606A21A210B48FFF7B8
:107E900046FE0A48017A302901D1202101720748A3
:107EA00010BD000025612025622025642025483A68
:107EB000254D3A25532025590A000000482F00205F
:107EC00010B500F0EDFBFFF7DDFF10BD03460B43DF
:107ED0009B0703D009E008C9121F08C0042AFAD280
:107EE00003E00B780370401C491C521EF9D2704706
:107EF000D2B201E00270401C491EFBD27047002242
:107F0000F6E710B513460A4604461946FFF7F0FF98
:107F1000204610BD421E5378521C002BFBD10B781B
:107F20001370491C521C002BF9D1704730B505461F
:107F30002A460B4610781C78521C5B1C002801D086
:107F4000A042F7D0002C03D0002802D06D1CEFE730
:107F5000284630BD10B5044605E00B780370401C80
:107F6000002B00D0491C521EF7D2204610BDCAB2C9
:107F7000401E4178401C8A4202D00029F9D10020DD
:107F80007047421C0178401C0029FBD1801A7047C1
:107F900010B5002200E0521C835C8C5CA34201D12E
:107FA000002BF8D1D8B2E1B2401A10BD0022CBB2FA
:107FB0000178994200D10246401C0029F8D11046B0
:107FC000704770B506460AF00BF8046805460A22A9
:107FD0000021304600F0F8FB2C6070BDF8B5024679
:107FE0004A40D40F42004B0052085B089A4202D22A
:107FF0000246084611464A0023D0C30D4A00DDB2AE
:10800000120EAD1A202D35DA49020126490AF6056D
:108010008A19002C00D0524220214F1B1146B94032
:108020002A411018C20D9A4221D0002C17D0012DE0
:1080300008DCDA05801AD20F8019D207DBB200F013
:1080400003FCF8BDDA05801A012340001B06C018A6
:1080500080185A428018CA0F1043490007E04908A7
:10806000C2071143DA05801A80194008801800F011
:10807000E3FBF8BD61000122511A001BF7E7012262
:10808000D2075140AAE70122D2075040A6E7024694
:1080900070B54A40D30FDB0740002DD04A002AD0EC
:1080A000010E140E000212020919400A520A841825
:1080B000E50104465443000A120A2E045043A41951
:1080C0004219200CC543AA18120C0125AD03521CFD
:1080D000521912047F39240400D0521C104301D4D9
:1080E0004000491EC2B20C06C0092018401C4008BE
:1080F000802A02D003E0002070BD40084000002923
:1081000000DA0020184370BD70B502464A40D50F12
:1081100040004A00ED0740085208002814D0002A09
:1081200012D0C40DD30D41020120C0055202490AEC
:10813000520AE41A091812187D34914201D3641CC2
:1081400000E04900002C01DA002070BD00239142BC
:1081500001D3891A0343400849000028F7D10029B8
:108160000AD0914202D10121C90705E0914201D212
:10817000012101E00121C943E005C018401900F0C8
:108180005BFB70BDF0B507460846584087B0C00F8E
:10819000049048000E46590040084908BC1A88411E
:1081A00005D2384631461E4617460B460246580051
:1081B000400810434DD0300D039040055900400D4C
:1081C000490D0590401A0290402873DA18030121E6
:1081D000000B09050843019004980092002806D07E
:1081E0001146019A49420020904100910190029865
:1081F00040210A1A0199009800F01EFA05460C4623
:108200006B4607CB00F039FAC0197141039A0E0D85
:108210000023D71756401A467A40164344D0049A92
:10822000002A2DD0029A012A039A15DC1205C01AE1
:10823000914101263605001C7141D20F059ED207DF
:108240000093019202962A46234600F043FB07B0B2
:10825000F0BD38463146FAE71605234A0F46B218F4
:10826000C01AB74101210905001C4F4100187F4188
:10827000114618187941E20F10436D19644113E05B
:10828000E2076D0815436408C2071443039A0126E8
:108290001205C01A91413605001C7141CE074008F5
:1082A00030434908C01851412A46234600F005FBD7
:1082B000CDE7FFE7049801224000C117121A0023FE
:1082C0008B4104983146C417381AA141EEE730B407
:1082D0000124E407634030BC54E730B40124E407D0
:1082E000614030BC4EE700000000E0FFF0B51FB475
:1082F00088B00B990998002448400999C00F49009B
:1083000049080991C0070B990090490049080B9151
:1083100009990898A64608431CD00B990A98084367
:1083200018D0099801244000420D4800410D0998D9
:1083300024050003000B204309900B980003000B59
:1083400020430B9050181C494018002201901446FD
:10835000104605E0002001460DB0F0BD032801DA0B
:10836000034600E003239C46C11A0AAE0AE05F0000
:1083700008ADED5B4F00F75B7D430027AA187C41F9
:10838000491C5B1E6145F2DD410004AB5A522104D9
:10839000120C0A43240C401C0828DFDB01980290D1
:1083A0000099704601910090059B049A07990698E0
:1083B00000F090FAD0E700000DFCFFFFF0B50C468E
:1083C0005C4085B0E40FE40703944C000026640889
:1083D00059009446490802460296224321D062463B
:1083E0000A431ED06200570D4A000E032303550DA9
:1083F000012402462C492405781B1B0B360B401820
:1084000023432643614600901C46501AB44103D3CF
:108410000098401C009002E0921800985B410028F0
:1084200003DA0020014605B0F0BD00200121090556
:108430000746864611E064461D46141BB54106D327
:108440006546521BB341744607430C43A646CD070D
:1084500040084908284392185B4105460D43EAD17C
:108460001046184313D060461946504071400843E7
:1084700006D06046101AB34106D20122002306E05E
:1084800000220123DB0702E00122D24353100098AF
:1084900074460105381C6141029C039D0019694125
:1084A00000F00BFABFE70000FD03000070B54B00C1
:1084B0005B0803430BD04B005C0D0026334665423E
:1084C000B341D417AD1AA34102DB0020014670BDB1
:1084D00012053018514170BDC217C10F504010B580
:1084E0004018CA079623002100F0AEF910BD000025
:1084F0000EB5C217C10F5040CA0740180021054BE6
:108500000293019200910A460B4600F0E3F903B092
:1085100000BD0000330400000EB5054902910021A2
:1085200000910A460B46019100F0D4F903B000BD5A
:1085300033040000C20F410040020123400ADB0562
:10854000D207090EC0187F2901DA0020704796294A
:1085500003DC9623591AC84001E096398840002A66
:10856000F4D040427047410040020122400AD20547
:10857000090E80187F2901DA00207047962903DC54
:108580009622511AC84070479639884070470000BB
:1085900070B5CD0F4A0009030123090B1B051943D0
:1085A0000B4BED070024520D9A4201DA002070BDFA
:1085B000074B34339A4203DC9A1A00F04DF802E07C
:1085C0000449511888402C43F1D0404270BD00004E
:1085D000FF030000CDFBFFFFC20FD20740004008A1
:1085E0000BD0C10D0723DB01C91840020905400A61
:1085F0001143C208400711437047002001467047ED
:10860000CB0FDB07490010B5490802460A4307D0E3
:108610000A0D07240903E401090B121B002A01DCDF
:10862000002010BDC900440F0C43C100E018D20562
:10863000801800F001F910BD10B5202A04DB0146B6
:10864000203A9140002010BD914020239C1A0346FF
:10865000E3401943904010BD10B5202A04DB0846C2
:10866000203AD040002110BD0B46D340D0402024FA
:10867000A21A91400843194610BD10B5202A06DB06
:10868000CB170846203A1041C1170B4306E00B46B2
:108690001341D0402024A21A91400843194610BD2E
:1086A00010B5024900F004F810BD0000642F00204E
:1086B00070B50C4600683C21FFF71CF921603C2195
:1086C000FFF718F961601821FFF714F90546A1605A
:1086D0000721001DFFF70EF9A1610F48A900081836
:1086E0000E49FFF707F90246443288086261E061EB
:1086F0003B2802D3910700D0401C0021084B0A46BA
:108700002161995C814203D8401A521C2261F8E72A
:10871000401CE060204670BD6C0B0000B5050000F9
:10872000520702080FB400B589B00CA900910B994B
:108730000023CB60204B214A06930792042201922A
:108740001F4A02921F4A089202466B46002000F020
:10875000E8F909B008BC04B0184770B586B0064601
:108760000020C0430190002015460C460091029164
:1087700004903246694604A8FFF7D4FF02460498E5
:108780002118002D05D0002801D0084600E0204621
:108790002860049800280DD0002A02DD0098884245
:1087A00008D0081B0190009432466946029404A840
:1087B000FFF7B8FF06B070BD798D0008998D0008ED
:1087C000FFFFFF7F2D7A0008F7B5009C0F460026BB
:1087D0002578641C002D05D0FFF724F90068405D62
:1087E000C007F5D12B2D02D02D2D18D0641E39468F
:1087F0002046029A00F0E2FA002F04D03968A14224
:1088000001D1009939607105022400290BDA404238
:10881000002803DD09F0E4FB0460A007FEBD012091
:1088200080020643E3E70028F8DA09F0D9FB046088
:108830000048FEBDFFFFFF7F002904DA401C49000D
:1088400001D140084000704770B40024050C05D1E8
:108850001024000402D1002921D01124050E01D1D9
:1088600000020834050F01D10001241D850F01D13C
:108870008000A41C002801DB4000641C002908D0F3
:1088800020252E1B0D46F540A14000D00121294393
:10889000084301061B1B000ADB1D02D5002070BC2B
:1088A0007047DB05181880180029F8DA401C4900C9
:1088B000F5D170BC40084000704710B5002B08DAB5
:1088C0000024401C614192185B411A4301D14008C9
:1088D000400010BDF0B51FB482B005460C0003D0B7
:1088E000084609F0F5FA02E009F0F2FA20300246F3
:1088F000009021462846FFF79FFE049B059A0446F8
:108900000F4618431143084314D0184610431BD098
:10891000009840210A1A18460599FFF79DFE054662
:108920000E46009A05990498FFF786FE084305D085
:10893000012004E02046394607B0F0BD0020C117F1
:1089400005430E432C43374300990E986305401AA4
:108950007905E40A00220C43FD0A0A3002D5002002
:108960000146E9E70105101969410C9C0D9D0019AC
:108970006941FFF7A2FFDFE74A0009030123090B62
:108980001B0519430A4B10B5520D9A4202DA00201A
:10899000014610BD064B34339A4203DC9A1AFFF7A6
:1089A0005BFE10BD034BD218FFF746FE10BD000062
:1089B000FF030000CDFBFFFF10B5002904DB0124FD
:1089C000E40740428C412146002B04DB1C46012376
:1089D000DB075242A341994200D1904210BD0000F2
:1089E000064C0125064E05E0E36807CC2B430C3C02
:1089F00098471034B442F7D3FEF766FF1815020803
:108A000038150208FFB5087889B01546FF2805D04B
:108A1000491C2D2804D00022002407E000240BE08C
:108A20000122F9E70A235C430419491C0878FF284E
:108A3000F8D1002A00D06442002004902A78014630
:108A40002D2A01D02B2A0FD16D1C2D2A02D00022F5
:108A5000049209E00122FBE700260A2233466D1C3E
:108A6000FEF7A2FF381871412F78FF2FF4D10C9A2E
:108A7000A218069202460A4304D0FF23069A9133B5
:108A8000DA4205DA002109980A4606C00DB0F0BDA9
:108A90000024B74AB54D2646079200F0F1F902903E
:108AA00006980391002801DA474200E0074639059D
:108AB0000020AF4A001C51410191009012E0F807DC
:108AC00007D022462B4630460799FFF70FFC064693
:108AD000079122462B4610461946FFF707FC04462D
:108AE0000D467F10002FEAD10698019B0028009ABE
:108AF0000399029806DAFFF761FC3246079BFFF7FD
:108B00005DFC05E0FFF7F2FB3246079BFFF7EEFB4B
:108B1000049A002A02D00122D2075140099A03C2C6
:108B2000B4E7FFB591B0002009900025ED432E2059
:108B30009E685C681F460190B9696D1C1298884751
:108B40000090396A88470028F6D10098401C0AD066
:108B50000D20C0018443002E12DD00982B2809D07F
:108B60002D280DD103E00020C04315B0F0BD012039
:108B700080020443B9696D1C12988847761E0090E4
:108B800003A9600501D52D2000E02B206A46107353
:108B9000491C0CA80F9102900AE0B9696D1C12984B
:108BA000884700900120400204431398761E056018
:108BB000002E02DD00983028EFD0019900988842FD
:108BC00046D18020044308E00998401E0990012006
:108BD000400204431399681C0860B9696D1C761E35
:108BE0001298884700903028EED031E001998842F1
:108BF00005D1200603D480200443761E1EE0009891
:108C000009F0C8FA002826D001204002044307A931
:108C10000F980331761E88420BD200980F99303896
:108C200008700F98401C0F90200607D50998401E29
:108C300003E0200602D40998401C0990A00502D543
:108C40001399681C0860B9696D1C129888470090D8
:108C5000002ECBDC59E0002E57DD0098652801D0AE
:108C6000452852D1A00550D5032000028443B9699C
:108C70006D1C761E129888470090002E0CDD2B2864
:108C800004D02D2808D1FF2001300443B9696D1CA0
:108C900012988847761E0090E00501D52D2100E04E
:108CA0002B21029801700298401C0290019025E04F
:108CB0000120400204430EA902980131761E884229
:108CC0000ED20098029930380006000E087003D1C9
:108CD0000299019881420AD90298401C029006E04C
:108CE000E00501D5234801E0224840420990B969D6
:108CF0006D1C12988847009013980560002E04DDC3
:108D0000009809F047FA0028D2D1F96912988847EB
:108D10000F99FF200870029903AA087000200A909A
:108D20000B900CA90AA8099BFFF76CFEA00502D4C2
:108D30000120C04319E72420044209D0E00713D1E1
:108D400038680B9A0A99031D3B60006806C00BE067
:108D50000B990A98FFF754FC0146E00704D13868E4
:108D6000021D3A60006801602846FEE600001440DB
:108D70000000F03FF1D8FFFF4268002A08D00168E8
:108D80000B78491C002B03D0521E06C018467047B2
:108D90000121C160881E70474268002A0BD0C36859
:108DA0000168002B07D183688B4204D0491E521CF6
:108DB00006C0002070470020C0437047F7B582B05E
:108DC000029C00272078641C15460197302802D0A9
:108DD000002D15D015E020780127641C782804D0D8
:108DE000582802D0002D09D00BE0002D01D0102D05
:108DF00007D1002710252078641C02E0082500E038
:108E00000A250026009610E00099012769430818FA
:108E1000020C294680B2714300908E1838048642B5
:108E200001D3012001902078641C294600F019F834
:108E30000028E9DA0398002805D0002F01D0641E2D
:108E400000E0029C04600198002806D009F0C8F8F0
:108E500002210160C81E05B0F0BD0099300408432E
:108E6000F9E73A2800D23038202302469A43412AB3
:108E700001D310463738884201D30020C0437047E1
:108E80000EB5054A02920022009213460192FFF7A6
:108E900021FD03B000BD00003304000070B58C1844
:108EA0000578401C6B075B0F01D10378401C2A1129
:108EB00006D10278401C03E006780E70401C491C65
:108EC0005B1EF9D12B0705D40023521E0DD40B7065
:108ED000491CFAE70378401CCB1A921C03E01D786A
:108EE0000D70491C5B1C521EF9D5A142D8D300203D
:108EF00070BD000070B5044604F03CF801461F4800
:108F0000808E48431E49FEF70BFDFFF7E5FA054644
:108F10001C48007800282CD11B4884420BD12846DD
:108F2000FFF75AFB04460E4602F046F80146224679
:108F3000334616A01BE01B4884420BD12846FFF79E
:108F40004BFB04460E4602F037F8014622463346F4
:108F500015A00CE0012C0CD12846FFF73DFB06467E
:108F60000C4602F029F801463246234614A008F0C8
:108F70008BFF2846FFF7F7FA80B270BDA8000020EB
:108F8000FF0F00001F000020100000105B25645D33
:108F90006164635F6D562831293A252E32660D0AC9
:108FA00000000000020000045B25645D6164635FF3
:108FB0006D562832293A252E32660D0A000000002F
:108FC0005B25645D6164635F6D562833293A252E05
:108FD00032660D0A0000000038B50446064805490F
:108FE0000068FEF787FC604300E0401E0090002808
:108FF000FBD138BD40420F00D4010020F8B5044633
:10900000006881688907890F012902D10168C907B1
:1090100022D18168114A10261140012500290ED164
:109020008168294381600120FFF7D6FF01F0C4FF6A
:1090300007460CE001F0C0FFC01B0A2807D9606D8D
:1090400030436065A06D2843A0650120F8BD20680D
:109050000068C043C007EDD10020F8BD17000080B4
:1090600070B50646002411F03DFD2BA13046FEF7F9
:109070008FFF00281AD029A13046FEF789FF00286B
:1090800015D0274D1820604329583046FEF74EFF73
:10909000002810D023A13046FEF748FF002810D04A
:1090A00018204443601981683046884770BD3046B7
:1090B0000AF068FD70BD641CE4B2302CE2D90120D6
:1090C00070BD19A13046FEF731FF00280AD01820E4
:1090D00044436019C168304688470028F0D10BF03E
:1090E000FDFE16E011A13046FEF720FF00280AD051
:1090F00001F062FF014618204443601942690CA048
:1091000008F0C2FE05E018204443601901693046AA
:109110008847002070BD00004154000041543F00CA
:1091200050DA01083D3F00003D0000003F00000014
:109130005B25645D25730D0A00000000F8B5564FED
:1091400000222021384601F030FF7D20C00001F0D0
:1091500061FC5248514C407A01250226183C0128F6
:109160000ED003280CD009280AD0022825D00528C3
:1091700061D0072879D0082879D00A2879D084E0EE
:1091800004F068FD12F06EFA012806D1257044A0A3
:1091900008F07AFE142001F03DFC12F005FC0128D5
:1091A00006D1267044A008F06FFE142001F032FCB6
:1091B0002078002837D146A030E001F027F801F0F0
:1091C00061F8642001F026FC8021384601F0E4FEBD
:1091D000002812D004F03EFD022014F0EBFB4349BE
:1091E000884206D2657042A008F04EFE142001F0BD
:1091F00011FC607800280CD015E0667044A008F0DF
:1092000043FE142001F006FC00F0E2FF01F01CF820
:1092100009E008F0A7FB012809D049A008F034FEB6
:10922000142001F0F7FB514802F0D0F92DE00320A3
:1092300060704FA0F2E708F0FFFD08F0CFFD01F0ED
:1092400081F8FF20F53001F0E5FB01F07BF808F034
:10925000E3FD08F0B3FD4DA008F016FE142001F068
:10926000D9FB12E001E002E003E04EA00BE054A0C5
:1092700009E007F091FD13F067F96079002801D04B
:1092800057A000E05CA008F0FFFD01222021384635
:1092900001F08BFEF8BD00000004005068000020C3
:1092A0005573652053656E736F7220697320534840
:1092B0005432780D0A0000005573652053656E73B3
:1092C0006F722069732053485433780D0A000000F0
:1092D0004E6F20493243206465766963652064657A
:1092E0007465637465640D0A00000000E703000004
:1092F0005573652053656E736F72206973204C49F6
:109300004441525F4C6974655F763348500D0A00E2
:109310005573652053656E736F7220697320756C89
:10932000747261736F6E69632064697374616E63D4
:1093300065206D6561737572656D656E740D0A00EB
:109340004E6F2064697374616E6365206D6561732F
:109350007572656D656E74206465766963652064F9
:10936000657465637465640D0A000000A80400203C
:109370005573652053656E736F7220697320756C29
:10938000742073656E736F720D0A0000557365204B
:1093900053656E736F722069732048583731310DF1
:1093A0000A0000003378414443202B203378445393
:1093B0003138423230206D6F64650D0A00000000C4
:1093C000546872656520696E746572727570742078
:1093D000636F6E74616374206D6F64650D0A0000C5
:1093E0005573652053656E736F7220697320544DF9
:1093F000503131370D0A00004E6F20544D5031313D
:10940000372064657465637465640D0A00000000AC
:1094100030B50024074B43431B0D04D0E4183C2512
:109420006B43C01AF6E73C2801D33C38641C10603B
:109430000C6030BD4444000010B5024801F01AFA37
:1094400010BD00009006002030B5446C1C252C4057
:109450000125A540046C6560046863608368102B77
:10946000036803D099600068C26030BD9A600068EC
:10947000C16030BDFEB5354D064600277F1CFFB2EA
:10948000304600F083F8002835D1304600F078FAF5
:109490003146442000F080FA012028702C4801F069
:1094A000B9FA304600F06CFA3146BE2000F074FA8A
:1094B000304600F01BFA0446304600F017FA00026E
:1094C00000B2204308D5C043401CFFF711F800222A
:1094D000204BFEF70BFF05E0FFF70AF80322D2430B
:1094E000FEF7E4FFFFF78CF804461B48844202D8DD
:1094F0001A48844203DD00202870194C04E0194802
:10950000844201D1022FB9D31748007800280ED128
:109510002046FFF761F80746009101F04DFD0099E4
:10952000019101463246009710A008F0ADFC012ED3
:1095300004D0022E04D0032E04D004E06C6002E0BC
:10954000AC6000E0EC602046FEBD0000540100204D
:10955000EE0200000000B0BF00005CC20000FA4252
:1095600000C0CCC30000AA421F0000205B25645D40
:1095700044533138423230282564292074656D7097
:1095800020697320252E3166200D0A0010B504468F
:1095900000F0A4F8012C06D005200007022C06D00C
:1095A000032C07D00AE001220821084804E0012228
:1095B000510201E00122910201F0F7FC204600F087
:1095C000A5F9204600F0C2F810BD000000040050CC
:1095D00030B500221949032387B0012813D0052490
:1095E0000125240702281FD003281BD1C86A28435D
:1095F000C862C86A28400590081500906946019322
:10960000029220460CE0CC6A02200443CC62C96A74
:109610000193014005910820009002926946084894
:1096200001F0F8FB07B030BDC86A2843C862C86AB9
:10963000C007C00F059001204002DEE70010024085
:1096400000040050F0B500260125224C87B0012807
:1096500018D005231B07022823D0032837D1012265
:1096600097023946184601F0A0FCE06A2843E06200
:10967000E06A00972840059005206946019602950A
:10968000000722E0144F01220821384601F08DFC2A
:10969000E16A02200143E162E16A0140082005918C
:1096A0000EE0012251021F46184601F07EFCE06ADE
:1096B0002843E062E06AC007C00F05900120400225
:1096C0000090694601960295384601F0A3FB07B069
:1096D000F0BD0000001002400004005010B501224F
:1096E0001849022386B0012812D005242407022835
:1096F0001ED003281AD1C86A1043C862C86A104035
:1097000005900815009069460393019220460BE0EE
:10971000C86A1843C862C86A69461840059008209C
:10972000009003930192084801F074FB06B010BD4D
:10973000C86A1043C862C86AC007C00F05900120FC
:109740004002DFE7001002400004005070B5002422
:10975000012806D005252D0702282AD003284ED03F
:1097600074E00120FFF76EFF394D04E0641CE4B2A1
:10977000012000F0ABF90821284601F00DFC00287B
:1097800002D0642CF2D35FE0642C5DD2002404E0AC
:10979000641CE4B2012000F099F90821284601F088
:1097A000FBFB002802D1F02CF2D34DE0F02C4BD281
:1097B0004CE00220FFF746FF0126760204E0641C1D
:1097C000E4B2012000F082F93146284601F0E4FBC2
:1097D000002802D0642CF2D336E0642C34D200246A
:1097E00004E0641CE4B2012000F070F93146284620
:1097F00001F0D2FB0028D9D1F02CF2D324E00320D1
:10980000FFF720FF0126B60204E0641CE4B2012049
:1098100000F05CF93146284601F0BEFB002802D07A
:10982000642CF2D310E0642C0ED2002404E0641CFB
:10983000E4B2012000F04AF93146284601F0ACFBC1
:109840000028B3D1F02CF2D3012070BD002070BDF0
:109850000004005070B5012806D005242407022812
:1098600013D003282BD025E00120FFF737FF1E4C33
:1098700000220821204601F098FB0A2000F026F97A
:109880000120FFF7DFFE08210EE00220FFF726FF90
:1098900001256D0200222946204601F086FB0A20A0
:1098A00000F014F9022018E0204601F075FB0128B1
:1098B00017D000222D2000F009F9104670BD0320BA
:1098C000FFF70CFF0125AD0200222946204601F0DA
:1098D0006CFB0A2000F0FAF80320FFF7B3FE2946DC
:1098E000E2E70122E6E700000004005070B5002521
:1098F00006462C463046FFF7ADFFA0402843641CC7
:10990000E4B2C5B2082CF5D3284670BD70B51A4D27
:10991000012814D005242407022825D0032822D1A9
:10992000FFF7DCFE00220126B6023146204601F098
:109930003CFB284600F0CAF8012231460DE0012028
:10994000FFF7CCFE0D4C00220821204601F02DFB34
:10995000284600F0BBF801220821204601F025FB33
:109960000F2000F0B3F870BD0220FFF7B7FE002211
:1099700001267602D9E70000EE0200000004005044
:1099800010B50446FFF7C2FF2046FFF7DFFE214671
:10999000CC2000F001F810BDF8B5044601291FD015
:1099A00005252D07022949D0032946D10320FFF7B9
:1099B00095FE00260127BF02E007C00F64080028BB
:1099C0006BD000223946284601F0EFFA082000F05B
:1099D0007DF801223946284601F0E7FA3A206AE08C
:1099E0000120FFF77BFE384E0025E007C00F64081A
:1099F00000280ED000220821304601F0D6FA0820B7
:109A000000F064F801220821304601F0CEFA3A2035
:109A10000DE000220821304601F0C7FA462000F090
:109A200055F801220821304601F0BFFA022000F06B
:109A30004DF86D1CEDB2082DD7D3F8BD0220FFF70D
:109A40004DFE002601277F02E007C00F64080028B2
:109A50000ED000223946284601F0A7FA082000F06F
:109A600035F801223946284601F09FFA3A200DE0E8
:109A700000223946284601F098FA462000F026F8E0
:109A800001223946284601F090FA022000F01EF823
:109A9000761CF6B2082ED7D3F8BD002239462846E8
:109AA00001F083FA462000F011F8012239462846D9
:109AB00001F07BFA022000F009F8761CF6B2082EBD
:109AC00000D279E7F8BD00000004005006E0002154
:109AD000491CC9B20429FBD3401E80B20028F6D12C
:109AE0007047000010B55021014800F0A7FA10BDE2
:109AF000005E0208F8B50026124871020F188114A2
:109B00001148FEF7FCF900252C46A800C01900F00A
:109B1000FBFA0D49020E0A550919020C4A70020A95
:109B20006D1C241D8A70ADB2C870A4B2802DECD318
:109B3000054906A008F0A8F9761CF6B2142EDBD36E
:109B4000F8BD0000005E0208781F002025730000A9
:109B500010B5012001F052F910BD10B5102001F030
:109B60004DF9FF20013001F049F9802001F046F95C
:109B70000120C00301F042F910BD0000F0B587B02C
:109B8000074614216846FEF7BAF93C4C0126022527
:109B9000002F06D0012F2AD0022F3DD0032F4DD009
:109BA00063E037A008F070F9E06A3043E062E06AF1
:109BB000C007C00F0590E06A2843E062E06A002415
:109BC000284005900120C0030090032001906946C1
:109BD0000294344801F01EF91020009005200194F1
:109BE00069460294000701F015F907B0F0BD2EA0F8
:109BF00008F04AF9E06A3043E062E06AC007C00F4B
:109C00000590E06A2843E062E06A28400590012060
:109C1000C00300902D4822E0E06A3043E062E06A31
:109C2000C007C00F0590E06A2843E062E06A284060
:109C300005900120C0030090254810E0E06A304301
:109C4000E062E06AC007C00F0590E06A2843E06266
:109C5000E06A284005900120C00300901D48019053
:109C6000694602950F4801F0D5F80022022107202D
:109C700001F06CFD072001F05DFDB6E70010024029
:109C80005B4750494F5D204B6F6E66696775726127
:109C9000636A612050423135202073746174653DE0
:109CA000300D0A00000400505B4750494F5D204BC7
:109CB0006F6E666967757261636A61205042313503
:109CC000202073746174653D310D0A00000031106D
:109CD0000000211000001110F0B587B006461421D5
:109CE0006846FEF70CF9294C0125002E07D0022703
:109CF000012E1AD0022E25D0032E2DD03CE024A018
:109D000008F0C2F8E06A2843E062E06A0095C00704
:109D1000C00F0590032001900020029005206946A5
:109D2000000701F077F807B0F0BD22A008F0ACF80A
:109D3000E06A2843E062E06A0095C007C00F059022
:109D4000254812E0E06A2843E062E06A0095C00717
:109D5000C00F0590214808E0E06A2843E062E06A0D
:109D60000095C007C00F05901D4801900520694669
:109D70000297000701F04EF800220221052001F0B1
:109D8000E5FC052001F0D6FCCDE700000010024004
:109D90005B4750494F5D204B6F6E66696775726116
:109DA000636A6120504130202073746174653D30D6
:109DB0000D0A00005B4750494F5D204B6F6E66698E
:109DC00067757261636A612050413020207374614D
:109DD00074653D310D0A00000000311000002110B3
:109DE00000001110F0B587B0054614216846FEF753
:109DF00086F8294C01261027002D06D0012D1AD0F7
:109E0000022D25D0032D2DD03DE024A008F03CF8F4
:109E1000E06A3043E062E06A0097C007C00F059037
:109E2000032001900020029005206946000700F001
:109E3000F1FF07B0F0BD22A008F026F8E06A304339
:109E4000E062E06A0097C007C00F0590254812E065
:109E5000E06A3043E062E06A0097C007C00F0590F7
:109E6000214808E0E06A3043E062E06A0097C007FA
:109E7000C00F05901D480190022002900520694600
:109E8000000700F0C7FF00220221072001F05EFC5E
:109E9000072001F04FFCCCE7001002405B4750491F
:109EA0004F5D204B6F6E666967757261636A6120F2
:109EB000504134202073746174653D300D0A0000F8
:109EC0005B4750494F5D204B6F6E666967757261E5
:109ED000636A6120504134202073746174653D31A0
:109EE0000D0A0000000031100000211000001110C8
:109EF00010B5044600F0E8FD22460349022000F0B8
:109F0000B9FD00F0ADFD10BD080008087047000065
:109F100010B5084900224A6107494B684C15234394
:109F20004B604B68082423434B60C009C0010260AA
:109F300010BD0000302F00200020024010B5214A43
:109F400000219069C305204804D5416902231943C3
:109F50004161911593699B0505D54369012423430C
:109F600043616302194393695B0505D5436908247E
:109F700023434361E301194393691B0505D54369F5
:109F80000424234343616302194393699B0405D569
:109F900043691024234343616302194393699B037C
:109FA00004D5446920231C43446119439369DB03AE
:109FB00005D54369402423434361A00201439161D5
:109FC00010BD000000200240302F002070B5054673
:109FD00000F0F2FF0646184C0AE0681C08D0002D7D
:109FE00004D000F0E9FF801BA84201D9032070BD16
:109FF000A069C007F1D1A069800701D50220A06146
:10A00000A069C00511D4A06980050ED4A0694005DF
:10A010000BD4A069000508D4A069800405D4A06908
:10A02000800302D4A069C00303D5FFF787FF012096
:10A0300070BD002070BD00000020024070B50D46CC
:10A040000646002400F0C8FD094A0020956041C280
:10A050000849074800F052FD002806D0641CE4B20D
:10A06000032CF5D104A007F00FFF00F089FD70BDAF
:10A07000681E0020080100206572726F7220696EF0
:10A08000204572617365206F7065726174696F6ECF
:10A090000A0D0000F8B516460F460546002400F0EC
:10A0A0009BFD14E0A0003A582946022000F076FDFE
:10A0B000002809D008A007F0E7FE00F05BFD01468C
:10A0C0000CA007F0E1FE04E0641CA4B22D1DB44214
:10A0D000E8D300F055FDF8BD6572726F7220696EAD
:10A0E000205772697465206F7065726174696F6E54
:10A0F0000A0D000077726974655F6572726F725F36
:10A10000666C61673A2578000168024841604068E2
:10A110007047000008010020014913208871704732
:10A120000000002010B50749074806F0ECFF07487B
:10A13000018F07484143044807F04CF8024807F0F4
:10A140005BF810BD55A1000838040020680000200D
:10A1500080EE360010B50B48018F0B4841430B4889
:10A1600007F038F8094807F047F80948007801284F
:10A1700007D10848817F002903D10121C176203011
:10A18000417010BD6800002080EE360038040020C9
:10A19000450000200000002000B587B0142168466B
:10A1A000FDF7ADFE0948C16A01221143C162C06AD0
:10A1B00069461040059060200090002001900290B8
:10A1C0000520000700F026FE07B000BD0010024089
:10A1D00000B587B014216846FDF791FE0948C26AB0
:10A1E00002210A43C262C06A0840059080200090A4
:10A1F00003200190002002906946034800F00AFE07
:10A2000007B000BD001002400004005000B587B048
:10A2100014216846FDF773FE0948C26A02210A4309
:10A22000C262C06A08400590802000900020019022
:10A23000012002906946034800F0ECFD07B000BD24
:10A24000001002400004005000B587B01421684699
:10A25000FDF755FE0948C26A02210A43C262C06A7C
:10A2600008400590402000900320019000200290BB
:10A270006946034800F0CEFD07B000BD0010024063
:10A280000004005000B587B014216846FDF737FE82
:10A290000A48C26A02210A43C262C06A08400590A5
:10A2A00040200090012001900020029003200390A4
:10A2B0006946034800F0AEFD07B000BD0010024043
:10A2C00000040050F0B58DB004462C216846FDF71F
:10A2D00016FE2046FDF775FE0C90601DFDF771FE21
:10A2E0000B9020460830FDF76CFE074620460B30E9
:10A2F000FDF767FE064620460E30FDF762FE054676
:10A3000020461130FDF75DFE0146074A0C98801883
:10A3100005900B986A46401E0490E2C26846FDF71D
:10A3200095FB0DB0F0BD000094F8FFFF08B500905C
:10A330006846FDF7C5FD014601A007F0A5FD08BD73
:10A340002573000010B503F0C7F80149486010BD3F
:10A350006401002070B503F0BFF80C4C00252060AC
:10A36000616888420ED0401AFEF7B6F80849096CB9
:10A37000FDF7CAFEFEF7DEF80649A0604018064960
:10A38000884200D3A560A06870BD00006401002071
:10A39000A8000020A0860100410D0300F8B5054685
:10A3A00004464035287C0026012808D00120287466
:10A3B000206881688907890F01290ED101E00220F8
:10A3C000F8BD0168C90708D0606D202108436065A9
:10A3D0000126002028743046F8BD616DFF2201324D
:10A3E0009143022211436165C1688907890F009179
:10A3F000C16889088900C16020688168920711439B
:10A40000816000F0D9FD07460EE000F0D5FDC01BCD
:10A410000A2809D9606D022188431021084360652C
:10A42000002028740120F8BD206880680028ECDB3B
:10A430002068C168009A1143C160606D8008800087
:10A44000401C6065C5E70000F8B506460D4640367D
:10A45000317C01290DD00121317401688A685207CD
:10A4600009D5416D2022114341650020307401203F
:10A47000F8BD0220F8BD174B6A68D80547109A420C
:10A48000154C8A6A2B6812D05B035B0B1A438A62F5
:10A490002968490305D5A1680143A1600A20FEF798
:10A4A0009BFD2868800312D5A06838430EE05B034B
:10A4B0005B0B9A438A622968490302D5A1688143EC
:10A4C000A1602868800302D5A068B843A06000207E
:10A4D0003074F8BD01100000002701400068006CD6
:10A4E0007047000070B5040006D0606D2646002558
:10A4F0004036002802D006E0012070BDA565357405
:10A50000204600F0D3F8606DC00603D42168886847
:10A51000400705D5606D1021084360653574EBE791
:10A52000606DFF220132904302221043606588680B
:10A530008207920F5B48012A02D10A68D2072BD109
:10A54000032362689B079A4205D05B429A4202D07D
:10A550005B009A4209D10A69920092080A61216857
:10A560000A6963681A430A610CE00A69920092085A
:10A570000A6181680F229204914381608168626858
:10A58000114381602168CA6818239A43CA60216810
:10A59000CA68A3681A43CA608168012252069143BF
:10A5A00081608168A28E52061143816020688168B3
:10A5B000C90004D481680122120711438160206818
:10A5C000C168394A1140C1602069E168022825D07C
:10A5D00000200143204620300278037B52035B00B9
:10A5E0001A431143226B1143A26992031143E2699A
:10A5F000D20311432268D3681943D160616A0A46C5
:10A60000FF3AC23A05D0A26A11432268D3681943BF
:10A61000D16042780121012A02D00BE00420D8E762
:10A620000078002823D0606D202210436065A06D63
:10A630000843A065E06B012820681FD00169C907A5
:10A6400003D0016949084900016120684169C908CE
:10A65000C900416120684169A26B11434161A56550
:10A66000606D80088000401C6065002070BD20681F
:10A67000C26801231B041A43C260DBE70269FF239F
:10A680009B009A43026120680269236CA66C1A43FE
:10A69000636C33431A430261206802690A43026112
:10A6A000D3E70000002701401902FEFF00680449BB
:10A6B000884204D10348416B4215114341637047FE
:10A6C0000024014000100240F8B5044640692546C8
:10A6D00040350E4608280BD02068C068C00709D056
:10A6E000606D202108436065002028740120F8BDBA
:10A6F000082700E00C2700F05FFC009011E0701CC0
:10A700000FD0002E05D000F057FC0099401AB0423F
:10A7100007D9606D04210843606500202874032078
:10A72000F8BD206800683842E9D0606D0121490217
:10A73000084360652068C16809058A0F0C21002A5A
:10A740001BD12022125D002A17D10268120714D5EE
:10A75000826853070122002B08DB43688B43436068
:10A76000606D130298431043606506E0606D20231E
:10A7700018436065A06D1043A065A069002801D151
:10A78000206801600020F8BD70B5044621680020F3
:10A790008968490721D425464035297C01291CD0E8
:10A7A00001212974E169012904D02046FEF726FC25
:10A7B000002811D1616D0A4A1140FF220132114374
:10A7C00061650021A165297422681C21116021683E
:10A7D0008A6804231A438A6070BD022070BD00009D
:10A7E000FEF1FFFF30B5014620314A790023022AED
:10A7F00004D00422C2630B71012030BD02681468CA
:10A800000E25AC4314600268146864086400146088
:10A81000446C1C22144001221546006CA540456082
:10A820004A7118460B7130BD70B5002401462031C5
:10A830004A79022A03D00421C163012418E0026886
:10A8400013680E25AB431360026813685B085B0056
:10A850001360436C1C221340012215469D40036C7B
:10A860005D604A7100220A71816B002900D088471F
:10A87000204670BDF0B4016C0D6801680C68466C30
:10A880001C2304221E401746B7402F420ED06707F4
:10A890000CD50C68A40602D40C6894430C60416C7F
:10A8A00019408A40016C4A60016B1AE00227B740E8
:10A8B00002462F402032002F17D0A70715D50C686D
:10A8C000A40605D40C680A25AC430C600121517123
:10A8D000446C02211C40036CA1405960002111719D
:10A8E000C16A002918D0F0BC08470827B7402F429A
:10A8F00012D0240710D50C680E25AC430C60446CB4
:10A9000001211C400B46A340046C6360C16351717C
:10A9100000211171416BE4E7F0BC704770B5040091
:10A920003CD01F48256814212818FCF7E3FF80005D
:10A9300060641C4820640221204620300246417198
:10A9400029681948E3680140A068666918432369CB
:10A9500033431843A3691843E3691843236A184330
:10A96000084328600121A0688903884210D00D485F
:10A970008030836A656C1C210D400F26AE40B343C6
:10A980008362656C63680D40816AAB400B438362F0
:10A990000020E06301215171107170BD012070BD74
:10A9A000F8FFFDBF000002400F80FFFFF8B504462E
:10A9B0008C46203001790025012909D00126067135
:10A9C00041790027012905D0077102252846F8BDE5
:10A9D0000220F8BD02214171E7632068016849083F
:10A9E0004900016061462046FEF72EFD206B0028DD
:10A9F0002068016801D00E2205E004229143016025
:10AA0000206801680A22114301602068016831430F
:10AA10000160DBE770B5044600F0CEFA0546601C25
:10AA200002D004480078241800F0C6FA401BA04267
:10AA3000FAD370BDC801002070B5074D0446284602
:10AA4000FFF7C4FA002805D1044948612060284670
:10AA5000FFF7BCFA70BD000050C30000302F00208B
:10AA60000348416801221143416000207047000003
:10AA700000200240F8B5124D0746287C14460E46C9
:10AA8000012807D0012028740E48FFF79FFA0028FC
:10AA900002D00CE00220F8BD00216961022F09D02C
:10AAA000012F09D0002F09D00648FFF78FFA0021A7
:10AAB0002974F8BD3460FAE73480F8E73470F6E7BB
:10AAC000302F002050C3000009494868C0070DD04E
:10AAD000EFF3108072B6074ACA60074ACA6080F373
:10AAE00010884868C00701D00120704700207047D7
:10AAF00000200240EFCDAB8905040302F8B51A4EE1
:10AB00000546307C0F46012807D0012030741748D5
:10AB1000FFF75CFA010002D021E00220F8BD00201E
:10AB2000C04338606C6814E02046FFF7F1F90F4825
:10AB3000FFF74CFA01460E48426808239A434260E8
:10AB4000426843159A434260002901D03C6006E008
:10AB50008034A8686A68C0018018A042E4D8002048
:10AB600030740846F8BD0000302F002050C30000AC
:10AB7000002002400148406970470000302F00204B
:10AB80000548416802221143416041680122114396
:10AB9000416000207047000000200240F8B50C4CD6
:10ABA0001646207C0F46012808D001202074094851
:10ABB000FFF70CFA0025002802D006E00220F8BDBD
:10ABC00065613E600348FFF701FA2574F8BD000097
:10ABD000302F002050C3000011484168C9070BD036
:10ABE000EFF3108172B60F4AC2600F4AC26081F360
:10ABF00010884168C9070ED1416889070DD5EFF368
:10AC0000108172B6094A0261094A026181F3108813
:10AC10004068800701D50120704700207047000080
:10AC200000200240EFCDAB8905040302BFAE9D8C2E
:10AC300016151413F8B54E4A4F4C92784F4B944664
:10AC40004C4A012195794A4AC903D778267D5A7A18
:10AC5000153D884227D1062A21D0082A02D0092A88
:10AC60001DD001E0012E1AD041486646012E19D1AF
:10AC7000092A17D03F4A322D14D3042F12D10125AF
:10AC8000557695710222C2709D713D4800F084F99D
:10AC90006070257002F0D6FD61783AA036E0A068B9
:10ACA000401CA060F8BD10280ED0012835D0C11F6F
:10ACB000F93905D08028F5D12E4901204875F8BD15
:10ACC0002B4902204871F8BD082A01D1012E20D05D
:10ACD000274861460129F6D12649322DF3D3082AA7
:10ACE000F1D1002EEFD1042FEDD101254D768D71DC
:10ACF0000221C1700520DD711021000700F04CF920
:10AD0000E070A57002F09EFDE17828A007F0BCF885
:10AD1000F8BDE068401CE060F8BD082A02D0092AAE
:10AD200021D001E0012E1ED0114861460129F3D146
:10AD30001049322DF0D3082AEED1002EECD1042F89
:10AD4000EAD101254D768D710221C17005201D7259
:10AD50002946000700F020F96071257102F072FDAC
:10AD600061791CA0D2E72069401C2061F8BD000079
:10AD70008C01002000000020A800002068000020B6
:10AD8000000400505B455854495D2050727A65724A
:10AD900077616E6965206E6120504231352C206CE0
:10ADA0006576656C203D2025640D0A005B4558548E
:10ADB000495D2050727A657277616E6965206E61B7
:10ADC000205041342C206C6576656C203D20256434
:10ADD0000D0A00005B455854495D2050727A657237
:10ADE00077616E6965206E61205041302C206C6562
:10ADF00076656C203D2025640D0A000010B50449DD
:10AE00004A69024202D04861FFF714FF10BD0000FA
:10AE100000040140F8B500230124A7E027469F4025
:10AE20003A4070D04D68022D01D0122D14D1DD08AA
:10AE3000AD002D1800952D6A5E07AC46F50E0F2665
:10AE4000AE46AE406546B543AC460E697546AE406B
:10AE500065462E43009D2E624D68012D05D0022DC2
:10AE600003D0112D01D0122D16D185680326AC46D2
:10AE70005D00AE46AE406546B543AC46CE6875460D
:10AE8000AE4065462E43866046680D79BE43ED06AA
:10AE9000ED0F9D403543456006685F000325BD40CA
:10AEA000AE46AE430D79B446AE07B60FBE4065461A
:10AEB0002E430660C6687546AE438D68BD40354377
:10AEC000C5604D68ED0050D52B4D6E6B26436E630B
:10AED0009E082A4DB6007519AC46AD689E07360F20
:10AEE0000F27B740BD4305273F07B84201D10027D0
:10AEF0001AE0234FB84201D1012715E0214FB84293
:10AF000002D1022710E030E01F4FB84201D10327E1
:10AF10000AE01E4FB84201D1042705E01C4FB84299
:10AF200001D1052700E00627B7402F436546AF60F3
:10AF3000184D2E684F689643FF0300D516432E60C8
:10AF40006E684F689643BF0300D516436E60AE68C7
:10AF50004F689643FF0200D51643AE60EE684F6817
:10AF60009643BF0200D51643EE605B1C0A68154687
:10AF7000DD4000D052E7F8BD001002400000014063
:10AF80000004005000080050000C00500010005059
:10AF9000001C0050000401400069084000D001205E
:10AFA000704742694A4042617047002A01D081617E
:10AFB0007047816270470000014880687047000058
:10AFC000C801002070B5024640325378202B1CD1B6
:10AFD0001378012B19D001231370242454700468B2
:10AFE00025689D432560046825681E03B5432560D8
:10AFF000046825680D4325600068016819430160F5
:10B00000202050700020107070BD022070BD70B5FF
:10B01000024640325378202B1BD11378012B18D0D5
:10B02000012414702423537003681D68A5431D6018
:10B0300005682B680F263602B343090219432960BD
:10B0400000680168214301602020507000201070CA
:10B0500070BD022070BD000070B5040006D025460A
:10B06000403568780026002802D005E0012070BD38
:10B070002E70204600F0ACFA242068702068016829
:10B080004908490001600F2160680906884321686A
:10B09000086121688A680120C00382438A60E168F0
:10B0A0000129A16808D021229202114322689160EF
:10B0B000E168022902D005E00143F7E70121226897
:10B0C000C902516021684A680F4B1A434A602168DF
:10B0D000CA688243CA60616920690843A16909029C
:10B0E00008432168C860216AE06908432168086054
:10B0F00020680168012211430160666420206870A5
:10B100002663AE70002070BD00800002FFB50546CA
:10B1100004464035687881B0202878D12878012805
:10B1200075D001202870FFF747FF074601220090E5
:10B130001923D103204602F0CFFA00283CD1222067
:10B1400068701020A87000266664039860620498F6
:10B1500060856663618D2F48FF2903D9FF22228510
:10B1600000903BE0618D218500903DE020460299F2
:10B1700002F09EFA16E002F0D7FA00281CD12068EF
:10B18000406A616A0870606A401C6062208D401EDF
:10B1900081B22185608D401E6085608D002801D0C0
:10B1A00000290CD0608D0A9900283A462046E2D149
:10B1B00002F0FAFA00281CD0012005B0F0BD00977B
:10B1C0000022802120460A9B02F086FA0028F3D153
:10B1D000608DFF2805D9FF222285009601231B06DA
:10B1E000C4E7608D20850096208D0123C2B25B06E6
:10B1F000BCE721682020C86121684A68064B1A40D4
:10B200004A606870AE702E700020D6E7FFE702201B
:10B21000D3E700000024008000E800FEFFB50546EB
:10B2200004464035687881B0202878D128780128F4
:10B2300075D001202870FFF7BFFE0746012200905D
:10B240001923D103204602F047FA00283CD12120DF
:10B2500068701020A87000266664039860620498E5
:10B2600060856663618D2F48FF2903D9FF222285FF
:10B2700000903BE0618D218500903DE020460299E1
:10B2800002F016FA16E002F0B5FA00281CD1606A46
:10B29000216800788862606A401C6062608D401E90
:10B2A0006085208D401E80B22085618D002901D0EF
:10B2B00000280CD0608D0A9900283A462046E2D139
:10B2C00002F072FA00281CD0012005B0F0BD0097F2
:10B2D0000022802120460A9B02F0FEF90028F3D1CB
:10B2E000608DFF2805D9FF222285009601231B06C9
:10B2F000C4E7608D20850096208D0123C2B25B06D5
:10B30000BCE721682020C86121684A68064B1A40C2
:10B310004A606870AE702E700020D6E7FFE702200A
:10B32000D3E700000020008000E800FEFFB50546DE
:10B3300004464035687883B0202875D10C980028E1
:10B3400014D00D98002811D0287801286CD0012045
:10B350002870FFF731FE0746012200901923D10320
:10B36000204602F0B9F9002874D103E00120400220
:10B3700060646FE0222068704020A8700026666438
:10B380000C9860620D98608566630E980090019736
:10B3900004A90EC9204602F02BF9002801D02E7016
:10B3A00058E0618D3448FF2905D9FF222285012309
:10B3B0001B06009006E0618D21850090208D012301
:10B3C000C2B25B062046049902F072F9009700228F
:10B3D000042120460E9B02F07FF900283AD1206814
:10B3E000406A616A0870606A401C6062208D401E7D
:10B3F00081B22185608D401E6085608D00281FD040
:10B4000000291DD100970022802120460E9B02F0CA
:10B4100063F900281ED1608DFF2806D9FF222285FE
:10B4200001231B06009607E024E0608D208500962E
:10B43000208D0123C2B25B062046049902F038F940
:10B44000608D0028C2D13A4620460E9902F0ACF930
:10B45000002802D0012007B0F0BD20682021C16182
:10B4600020684268054B1A4042606970AE702E70C9
:10B470000020F0E70220EEE70024008000E800FE54
:10B48000FFB5054604464035687883B0202872D160
:10B490000C98002814D00D98002811D02878012885
:10B4A00069D001202870FFF787FD07460122009030
:10B4B0001923D103204602F00FF9002871D103E0CF
:10B4C0000120400260646CE0212068704020A87078
:10B4D000002666640C9860620D98608566630E981D
:10B4E0000090019704A90EC9204602F0B1F8002887
:10B4F00001D02E7055E0608DFF2805D9FF222285EE
:10B5000001231B06009606E0608D20850096208DA5
:10B510000123C2B25B062046049902F0C9F83A46FC
:10B5200020460E9902F066F900283AD1606A216837
:10B5300000788862606A401C6062608D401E608591
:10B54000208D401E80B22085618D00291FD00028EB
:10B550001DD100970022802120460E9B02F0BCF8EE
:10B5600000281ED1608DFF2806D9FF2222850123E5
:10B570001B06009607E024E0608D20850096208D54
:10B580000123C2B25B062046049902F091F8608D57
:10B590000028C4D13A4620460E9902F005F9002849
:10B5A00002D0012007B0F0BD20682021C1612068D1
:10B5B0004268054B1A4042606970AE702E700020E0
:10B5C000F0E70220EEE7000000E800FE7047000010
:10B5D00010B586B0044614216846FCF790FC10496B
:10B5E0002068884219D10F4CE16A02200143E162D0
:10B5F000E16A01400591C0200090122001210190D4
:10B60000032002910491039069460748FFF702FC6A
:10B61000A06B012149050843A06306B010BD0000DE
:10B6200000540040001002400004005070B50400B7
:10B630000FD021681348086021681348086003CCC4
:10B6400041602068083C21688860FFF7B5FC05462A
:10B6500008E0012070BDFFF7AFFC401B292801D98D
:10B66000032070BD2068C0680028F4D120680269FA
:10B67000E1688A4201D0016101E0044901600020D3
:10B6800070BD0000CCCC000055550000AAAA0000F7
:10B69000006802490160002070470000AAAA00006B
:10B6A000024881680278891881607047C8010020CB
:10B6B00010B508480024016840221143016020466B
:10B6C00000F00AF8002801D0012401E000F026F87B
:10B6D000204610BD0020024070B504460D4D7D206F
:10B6E0002978C000FCF706F901460B480068FCF712
:10B6F00001F901F099F8002809D1042C07D20022A1
:10B700002146401E00F022F800206C6070BD012030
:10B7100070BD0000C8010020D40100200448416B26
:10B72000012211434163816B02041143816370471D
:10B7300000100240002805DBC106C90E0120884028
:10B74000014908607047000000E100E010B506F014
:10B75000FBFB10BD024801680215114301607047F0
:10B7600000700040024801684215114301607047B3
:10B770000070004002480168821511430160704763
:10B7800000700040F0B5154A1368154D54152D6A28
:10B790002340ED07ED0F002B04D0002D02D01668DA
:10B7A000A64316601668B608B600064316600D4834
:10B7B000076904263743076101290DD040BF20BF28
:10B7C00020BF0169B1430161002B04D0002D02D0DC
:10B7D000106820431060F0BD30BFF2E700700040F9
:10B7E0000000014000ED00E0F8B5044600780027B5
:10B7F0005D4D800671D55C4E403EB06BC00004D4F8
:10B80000B06BA9050843B063012758480168C90512
:10B8100011D40168821511430160FFF7CDFB009040
:10B8200005E0FFF7C9FB0099401A642837D84F4854
:10B830000068C005F5D532680321090560680A4033
:10B840000140914208D08103890F032904D1316856
:10B85000890301D50120F8BD2A69032109040A40A2
:10B8600022D0084090421FD0207880061CD528693D
:10B870002A6988430121C9040A432A612A698A4343
:10B880002A612861C0050FD5FFF796FB009008E0FC
:10B89000FFF792FB0099411A3548814201D90320F4
:10B8A000F8BD28698005F3D561688803800F0328F7
:10B8B00005D132680005824301400A43326028699D
:10B8C000032261681204114008432861002F04D04C
:10B8D000B06B012109078843B0632078C00705D009
:10B8E000E868A168800880000843E8602078800745
:10B8F00005D5E8680C218843E1680843E8602078B2
:10B90000400706D5E8680321890288432169084376
:10B91000E8602078000706D5E8680321090388431A
:10B9200061690843E8602088C00506D5E8680321FE
:10B9300009048843A1690843E8602078400606D5D9
:10B94000E868012189068843216A0843E860207875
:10B95000000606D5E868032189048843E1690843A5
:10B96000E8600020F8BD0000401002400070004078
:10B9700088130000F8B50E46050038D05E48006810
:10B98000C007C00FB04214D25B4C20684008400092
:10B9900030432060FFF710FB074605E0FFF70CFB84
:10B9A000C11B564881427AD82068C007C00FB042F8
:10B9B000F4D12878524C800705D5E068F0218843FF
:10B9C000A9680843E0602878C00752D06868022858
:10B9D00006D0032807D0216801280AD0890504E091
:10B9E0002168890301E021688901002903DB012026
:10B9F000F8BD4907F9E7E168890889000143E1607A
:10BA0000FFF7DAFA0746686802280AD0032814D03C
:10BA100001281ED029E0FFF7CFFAC11B3748814229
:10BA20003DD8E0680007800F0228F4D121E0FFF73D
:10BA3000C3FAC11B3148814231D8E0680007800F4A
:10BA40000328F4D115E0FFF7B7FAC11B2B48814258
:10BA500025D8E0680007800F0128F4D109E0FFF73E
:10BA6000ABFAC11B2548814219D8E0680007800F56
:10BA7000F5D121480168C907C90FB14217D901683A
:10BA80004908490031430160FFF796FA074608E08C
:10BA900005E0FFF791FAC11B1848814201D9032044
:10BAA000F8BD15480068C007C00FB042F1D1287832
:10BAB000400706D5E068072109028843E968084382
:10BAC000E0602878000707D5E0680721C9028843AD
:10BAD0002969C9000843E06000F03AF8E168094AC2
:10BAE0000906090F515CC84007490860074800680B
:10BAF000FFF7F2FDF8BD00000020024088130000AF
:10BB00000010024048060208D4010020CC010020A9
:10BB1000044805490068C968044A4905490F515C51
:10BB2000C8407047D401002000100240610602089E
:10BB3000044805490068C968044A8904490F515CF2
:10BB4000C8407047D401002000100240610602087E
:10BB500070B51A4AD3681A490C2018408D00042881
:10BB60000CD04E00082810D00C2810D050680004CB
:10BB7000410F0120C003491C884070BD1068C006F9
:10BB800001D5084670BD284670BD304670BD98028C
:10BB90000C4C000F205C1B029C0FD368641CDB0361
:10BBA00001D5314603E01268D20600D4294606F0DA
:10BBB000A6F922460023FBF7C7FE70BD0010024025
:10BBC00000093D0058060208FEB505007ED0F74C7E
:10BBD000E7680C20E668074001200004064028784A
:10BBE000C00747D0082F05D00C2F0AD10120000430
:10BBF000864206D1206880033CD568680028E5D0DD
:10BC000038E0012069680004814203D121680143C2
:10BC1000216011E0052301221B049204994221684E
:10BC200002D111432160F1E7814321602168014085
:10BC30000091206890432060686800280DD0FFF7CD
:10BC4000BBF9009005E0FFF7B7F90099401A6428A6
:10BC50007ED820688003F6D50CE0FFF7ADF90090A0
:10BC600005E0FFF7A9F90099401A6428F0D8206888
:10BC70008003F6D4287880075DD5E868810604D56E
:10BC8000226820210A43226088430923042F0DD013
:10BC90000C2F01D1002E09D000283CD021689943F7
:10BCA00001432160FFF788F9064628E0216849072B
:10BCB00001D500288AD061681F22120291432A69A7
:10BCC0001202114361602168994300E0C7E101431A
:10BCD0002160FFF73DFFE16809060A0FB449895C5E
:10BCE000C840B4490860B4480068FFF7F5FC002874
:10BCF00074D120E0FFF760F9801B0228A8D82068E3
:10BD00004007F7D560681F210902884329690902A5
:10BD1000084360600FE02068400840002060FFF7A3
:10BD20004BF9064604E0FFF747F9801B02288FD83D
:10BD300020684007F7D42878C00661D5002F0DD0C1
:10BD4000E86900284BD02068FF210131084300E05A
:10BD5000EAE02060FFF730F906462DE02068800514
:10BD600002D5E8690028A5D0606807214903884307
:10BD7000696A084360606068298C0002000A09064D
:10BD800008436060686A410B0120C003491C884079
:10BD9000E16809060A0F8649895CC8408549086040
:10BDA00085480068FFF798FC002817D128E0FFF7C6
:10BDB00003F9801B0228A1D820688005F7D56068A8
:10BDC000072149038843696A084360606068298CD9
:10BDD0000002000A09060843606011E025E12168BD
:10BDE000FF20013081432160FFF7E6F8064604E0BA
:10BDF000FFF7E2F8801B022899D820688005F7D465
:10BE000028786E4E000724D568690028306910D064
:10BE1000012108433061FFF7CFF8009005E0FFF7FC
:10BE2000CBF80099401A02287ED830698007F6D5F1
:10BE30000FE0400840003061FFF7BEF8009005E0D9
:10BE4000FFF7BAF80099401A02286DD830698007C8
:10BE5000F6D42878400764D500200290A06BC0007B
:10BE600006D4A06B012109070843A06301200290BA
:10BE700053480168C90511D4016882151143016056
:10BE8000FFF79AF8009005E0FFF796F80099401A3E
:10BE9000642849D84A480068C005F5D5FF20AA683B
:10BEA0000130824203D131690143316111E0012146
:10BEB0008902002A07D005231B029A4203D1326966
:10BEC0000A433261EFE73269824332613069884365
:10BED0003061A86800280ED0FFF76EF8009006E0E9
:10BEE000FFF76AF80099411A364881421CD8306938
:10BEF0008005F5D50DE0FFF75FF8009006E0FFF74D
:10BF00005BF80099411A2F4881420DD830698005AD
:10BF1000F5D40298002804D0A16B012000078143CA
:10BF2000A1632878800600E07EE02ED52648A96926
:10BF30004314002916D0A26801210A43A260626B53
:10BF40000A436263016A19430162FFF735F8064646
:10BF500004E0FFF731F8801B022865D8A06880074D
:10BF6000F7D512E0A16849084900A160016A994328
:10BF70000162FFF721F8064604E0FFF71DF8801B79
:10BF8000022851D8A0688007F7D4A86A002868D092
:10BF90000C2F4FD0012636060228206816D0B04359
:10BFA0002060FFF709F8054640E00000001002405D
:10BFB00048060208D4010020CC01002040100240B5
:10BFC000007000408813000000000140B043206072
:10BFD000FEF7F2FF074604E0FEF7EEFFC01B022863
:10BFE00022D820688001F7D4296BE86AE268084308
:10BFF000696BFD231B049A4311430843E0602068EA
:10C0000030432060FEF7D8FF054604E0FEF7D4FF7A
:10C01000401B022808D820688001F7D521E0FEF7F0
:10C02000CBFF401B022801D90320FEBD2068800100
:10C03000F5D416E00128F8D0E06801210904EA6A85
:10C04000014091420BD10F2189042A6B014091429A
:10C0500005D1032189050840696B884201D0012080
:10C06000FEBD0020FEBD0000F8B53D48FFF710FB07
:10C070003C4A002113793C48012B07D143795B1CD2
:10C08000DBB243711E2B01D111714171374C012379
:10C09000A578002D02D0012D0BD010E0427C012AA2
:10C0A0000DD1827F002A0AD10C228271C37441749F
:10C0B00005E0E578022D02D1857F002D04D00173C3
:10C0C000C27C012A21D045E0057B6D1CEDB20573D1
:10C0D0000C2DF5D30173C5796D1CC571127F012A32
:10C0E0000AD0022A0AD0032A0CD0042AE8D1462218
:10C0F00082711F4A1370E3E7232204E02B2282712E
:10C100001C4AF7E73E228271DAE7827F002A21D1BA
:10C11000827C0627521CD5B2124A8574203256788A
:10C120007E43AE4216D18174134DC1742B70937F40
:10C130005B1CDBB29377042B08D39177517F891C6A
:10C14000C9B251770C2901D30C2151770421A17078
:10C150005121817101210A2001F018FEF8BD000073
:10C16000F404002068000020000000208C01002062
:10C170007901002074010020760100200068890008
:10C18000503008180068704700688900503008185F
:10C190000260704730B5014620310A78012A15D077
:10C1A00001220A7002234B700468CA236362046888
:10C1B0005323636203689C6820252C439C600068BD
:10C1C000FF2343624A700020087030BD022030BD5A
:10C1D00010B504F0ADFF10BD70B50446006881686D
:10C1E0008025C90400290BDAC068C00508D520469F
:10C1F000FFF7EEFF2168C8682840FF388238C86022
:10C200002068816889040BD5C068800508D5204660
:10C21000FFF72AFF2068C168054A29408918C160D4
:10C22000012004494004486101202034607070BD41
:10C230007FFDFFFF00040140F8B5054604462035A8
:10C24000287801281DD001202870022068702268FB
:10C25000CA205062226853205062FF20013000261D
:10C26000FF2781421CD121688A6882438A60206846
:10C2700081680122120391438160FEF79DFE0090C8
:10C2800009E00220F8BDFEF797FE0099411A7D20D3
:10C29000C00081421BD82068C068C007F3D020E0EE
:10C2A0002068816801225202914381602068816880
:10C2B000120191438160FEF77FFE00900DE0FEF7D2
:10C2C0007BFE0099411A7D20C000814205D920687B
:10C2D0004762032068702E70F8BD2068C068800730
:10C2E000EDD520684762012068702E700020F8BDEF
:10C2F00010B500680B464068C021C94301400002E8
:10C30000000ECC04D870E40E5C708C06A40E0904F8
:10C31000490F9C701970002A0AD104F05DFBD87097
:10C32000587804F059FB5870987804F055FB9870D1
:10C33000002010BD30B50B460168896A596001685C
:10C3400009694904490C9960006804680F4821464E
:10C35000014088024D04800E18706D0E49065D7014
:10C36000490E99706102490E40242140D970002A7B
:10C370000AD104F031FB1870587804F02DFB587086
:10C38000987804F029FB9870002030BD7F7F7F00F3
:10C39000F8B5040050D0254620356878002803D130
:10C3A0002870204600F052F8022068702168CA20E8
:10C3B0004862216853204862204604F021FBFF2692
:10C3C00004270028206802D046626F7034E081683C
:10C3D0001D4A11408160216888686268A369104322
:10C3E00022691A43104388602168E0680861206868
:10C3F000016922891204114301612068C168802209
:10C400009143C1602068C16C89088900C164E169F9
:10C41000606901432068C26C1143C1642068806870
:10C4200080060BD4204600F0DDF9002806D02068F5
:10C4300046626F70002028700120F8BD20684662B7
:10C44000012068700020F8BDBFFF8FFF00B597B0D6
:10C450000420009000200A90FF20013002906846DE
:10C46000FFF7B2FB002801D0FDF750FD20200E9011
:10C47000C0020F900EA8FFF7B7F9002801D0FDF712
:10C4800045FD08480169012292041143016100221F
:10C4900011460220FFF75AF90220FFF74BF917B0B7
:10C4A00000BD000040100240FEB50646044620369E
:10C4B00030780B4601283ED0012030700220707089
:10C4C000184620300090206800278068002A34D069
:10C4D000400600D4DF7019789D7809040D4359781F
:10C4E000DA780902120411430D430099D8690978DA
:10C4F00009060D430543586999690543586808437F
:10C5000000902168CA204862216853204862FF20B9
:10C510005A6A01308021824245D122689368834360
:10C5200093602068C2680A40FF3A823AC260FEF710
:10C5300043FD019024E00220FEBD400600D4DF70E0
:10C54000187804F051FA0504587804F04DFA000206
:10C550000543987804F048FA0543D8780004054369
:10C560000098007804F040FA00060543D869C1E756
:10C57000FEF722FD0199411A7D20C00081422AD890
:10C580002068C068C007F3D02068C56121680098A2
:10C59000486420688168FF2201321143816020686D
:10C5A0008168120130E02068826801235B029A43AF
:10C5B00082602068C2680A401D495118C160FEF7B8
:10C5C000FBFC01900EE0FEF7F7FC0199411A7D207B
:10C5D000C000814206D92168FF20486203207070A4
:10C5E0003770FEBD2068C0688007ECD52068056202
:10C5F00021680098886420688168012252021143F2
:10C6000081602068816812011143816009480268D5
:10C61000012149040A43026082680A43826021685A
:10C62000FF2048620120707037700020FEBD0000BE
:10C630007FFDFFFF00040140F8B5054604462035A4
:10C6400028780B4601280FD001202870022068703E
:10C65000002A0BD0D8789E780004064358780978D1
:10C6600000024903084317E00220F8BD5878C106CC
:10C6700003D5EF2108400A305870D87804F0B4F997
:10C680000604587804F0B0F900020643987804F0E4
:10C69000ABF906431878400306432168CA20486274
:10C6A000216853204862204604F0AAF90027002898
:10C6B00011D111480640206846602068C168802278
:10C6C0009143C1602068806880060CD4204600F049
:10C6D00089F8002807D02168FF204862042068708C
:10C6E0002F700120F8BD2168FF204862012068708A
:10C6F0002F700020F8BD00003FFFFF00F8B5064690
:10C700000446203630780D46012822D001203070B2
:10C7100002207070206800278068002A1BD0400625
:10C7200000D4EF702978A878090408436978EA787A
:10C73000090212041143084300902168CA2048628C
:10C74000216853204862204604F05AF9002837D166
:10C7500016E00220F8BD400600D4EF70287804F0FF
:10C7600043F90304687804F03FF900020343A87812
:10C7700004F03AF90343E878000403430093DCE74C
:10C7800017490098084021680860206881680122E4
:10C790009204914381602969E868084321688A68A6
:10C7A000104388602068C16880229143C16020687E
:10C7B000806880060CD4204600F014F8002807D0CA
:10C7C0002168FF2048620420707037700120F8BD96
:10C7D0002168FF2048620120707037700020F8BD8A
:10C7E0007F7F7F0070B504460068C168A022914336
:10C7F000C160FEF7E1FB7D260546F60006E0FEF788
:10C80000DBFB401BB04201D9032070BD2068C0682B
:10C810008006F4D5002070BD024801690222114350
:10C820000161704700E000E0094910B5401E8842F0
:10C8300001D9012010BD074C60610321081F05F0DC
:10C8400083FB0020A06107202061002010BD0000B4
:10C85000FFFFFF0000E000E002480169022291436F
:10C860000161704700E000E0014660310A7D012A65
:10C8700009D001220A750068026802231A43026087
:10C88000002008757047022070477047FEB50546C6
:10C8900004466035287D00269446012811D00123E6
:10C8A0002B752420A067206802689A4302602768DD
:10C8B000B8680322120590430843B860002902D0EB
:10C8C00015E00220FEBD604600910190206841689D
:10C8D000102291436A469288114341602068416862
:10C8E0006A4609029279090A1206114341602068DA
:10C8F000016819430160FEF75FFB09490091034697
:10C90000012100228905204604F0B0FF002801D053
:10C91000032601E02020A067002028753046FEBDD8
:10C92000FFFFFF0170477047F8B502680446D06901
:10C9300011689668814B05461D402023002D6CD060
:10C94000F7077F4DFF0FBC460D402F4379D025469A
:10C95000C7078035002F06D0CF0504D50127176201
:10C960002A683A432A60820708D5F20706D027686A
:10C9700002223A622A6804273A432A60420708D50D
:10C98000F20706D02668042232622A680226324361
:10C990002A6002070AD50A461A406646324305D085
:10C9A0002668082232622E6816432E60020508D5DA
:10C9B0004A0106D501222668D20232622A681A4349
:10C9C0002A602A68002A30D0800606D5880604D559
:10C9D000616E002901D0204688472868216889684F
:10C9E000490602D42821084225D0204604F051FDF2
:10C9F00020688168490619D5826840218A4382608F
:10CA0000206F002812D04F498163206FFDF70CFF83
:10CA100000280AD0206F816B06E0850611D58D06AF
:10CA20000FD5616E77E020468847F8BD2046FFF7B6
:10CA30007AFFF8BD05E02046FFF775FF002028606B
:10CA4000F7E7256E012D56D1C50654D5CD0652D532
:10CA5000102616622068816825464906403500295F
:10CA60002ADA226F116849680904090CE1D02F8B7A
:10CA70008F42DED9698311680968890617D4016875
:10CA80003201914301602068816849084900816052
:10CA900020688168402291438160E367002020661E
:10CAA00020680168B1430160206FFDF79BFE288B71
:10CAB000698B401A81B21AE0298B6A8B891A6A8BBA
:10CAC00089B2002AB5D00029B3D00268FF252135EC
:10CAD000AA43026020688268520852008260E367BD
:10CAE00000202066606620680268B243026020462B
:10CAF000FFF7CBFE9DE7C50208D5750206D50120DC
:10CB0000000510622046FFF70DFF92E7050605D5E8
:10CB10000D0603D5A16E002985D18AE7400688D588
:10CB2000480686D5116820464024A14311608367DA
:10CB30000021816600F01CFA7BE700000F0800006E
:10CB400020010004F913010810B5040003D0A06F00
:10CB5000002802D007E0012010BD002174200155FB
:10CB6000204600F027F82420A067206801684908C3
:10CB700049000160204604F023FD0128ECD0606AE2
:10CB8000002802D0204604F09FFB2068416809225B
:10CB9000D20291434160206881682A2291438160DA
:10CBA00020680168012211430160204604F0F2FB75
:10CBB00010BD0000F0B587B0064614216846FBF7AB
:10CBC0009EF9414C37680025404902200122032389
:10CBD000A74232D18C6B47043C438C63CC6A04433C
:10CBE000CC62C96A01AC01400591990200910DC463
:10CBF0000720049069463648FEF70CF9364C354854
:10CC00002060052060601020E560A0606561A5617E
:10CC10008020E5612061800120622046FDF77EFED4
:10CC2000002801D0FDF772F9F466002201211D20D1
:10CC3000A662FEF78BFD1D2020E0284E0424B7429B
:10CC400020D14E6B27033E434E63CE6A1643CE621D
:10CC5000C96A0190C907C90F0591032149020091D2
:10CC6000052002950494039369460007FEF7D2F865
:10CC7000002201211B20FEF769FD1B20FEF75AFD53
:10CC800007B0F0BD164EB742FAD18E6B01277F0474
:10CC90003E438E63CE6A1643CE62C96A0190C907CD
:10CCA000C90F05910C21009105200295049403936E
:10CCB00069460007FEF7AEF8002201211C20FEF7AE
:10CCC00045FD1C20DAE7000000480040001002404B
:10CCD000000400501C000240900600200038014073
:10CCE0000044004030B5C36F202B27D100290BD062
:10CCF000002A09D0012483682403A34206D10369D2
:10CD0000002B03D1CB0701D0012030BD0346603397
:10CD10001C7D012C12D001241C7500230366084CD5
:10CD20000368A34207D05C68240204D51C6801256F
:10CD3000AD062C431C6004F04DFD30BD022030BD1B
:10CD40000048004070B5224A0123224990421AD17E
:10CD5000214A08462430168E556B0478AC55148E43
:10CD6000641C14868A794B2A06D142780D2A03D195
:10CD700002780A2A00D18B7001784170154901228E
:10CD80002431134810E0154A904210D1144C488CBD
:10CD90000A782254401C48840D2A01D00A2A00D166
:10CDA0004B7001220B490D48FFF79CFF70BD0D4AE7
:10CDB0009042FBD10879282804D20B4BCA781A5428
:10CDC000401C087103490122C91C0648ECE7000019
:10CDD00004050020000000208C0100200C0600202B
:10CDE000E0010020880500200C030020FFB5044668
:10CDF000806F83B017460D4620285ED1002D0AD0E3
:10CE0000002F08D0A168C001814207D12069002805
:10CE100004D1E80702D0012007B0F0BD2046603001
:10CE20000090007D012848D0009801210175002064
:10CE3000802108512120A067FEF7BEF82646403623
:10CE40000190378277820120A1680003814202D1DC
:10CE50002069002805D02F4600250099002008757C
:10CE600011E00027F9E700228021204604F0FEFCB3
:10CE7000002815D1002F15D02168387888627F1CD2
:10CE8000708A401E7082708A019B0028069800906C
:10CE9000E9D100224021204604F0E8FC002808D017
:10CEA0000320B9E728882168C005C00D8862AD1C41
:10CEB000E6E72020A0670020AEE70220ACE70000F4
:10CEC000F8B50446806F20284AD100290BD0002AEB
:10CED00009D00123A0681B03984206D120690028CD
:10CEE00003D1C80701D00120F8BD25466035287D53
:10CEF000012835D00120287520464030E1640282A7
:10CF000042820026274680373E602120A067E06EDF
:10CF100000281AD01349C162E16E13480863E16E1C
:10CF200012484863E06E134686632068E16C28303F
:10CF300084466246E06EFDF739FD002805D01020DA
:10CF400038602E752020A067CDE721684020086258
:10CF50002E75206881688022114381600020F8BD11
:10CF60000220F8BD59140108891401080D140108A4
:10CF7000704770477CB506461A484168C94309079F
:10CF8000FBD4194C606B651528436063002117487A
:10CF9000FDF704FA164800901648019069461348B8
:10CFA000FDF752FAA0140190694600960F48FDF76C
:10CFB0004BFA0E48FDF7E8FB0021C9430B48FDF78B
:10CFC00083FB0A48FDF78AFA084980B20A68936829
:10CFD000022633439360096803220A60616BA94308
:10CFE00061637CBD00700040001002404C040020D2
:10CFF000FFFF07000110000038B50B231B07C51801
:10D00000114B0FD01C152D1B18D02D1B19D0A5426C
:10D01000DD6A05D108242543DD62DB6A234007E091
:10D020008024F8E7DC6A01252C43DC62DB6A2B40B4
:10D03000009311601146FDF7EDFE38BDDD6A022454
:10D04000E9E7DD6A0424E6E70010024070B51749FD
:10D0500004464A6A08698018000EE0714A6A086945
:10D060008018000CA071088A8A8C8018000A6071F0
:10D07000087C8A8C801820714869000EE07048692D
:10D08000000CA070888A000A6070087D2070052559
:10D09000625D07A1084804F007FF074908461438F5
:10D0A000FAF738FF6D1C082DF2DB70BD4000F81F49
:10D0B00025303278000000008403002070B50C4653
:10D0C000054600210448FFF759F82860012102486D
:10D0D000FFF754F8206070BDD806002010B50C464C
:10D0E000024600210448FFF74FF82246012102487A
:10D0F000FFF74AF810BD0000D806002030B587B011
:10D100000546694605A800F00BF8840A89058005E4
:10D110000C43800D00F0D0F92880204607B030BDC8
:10D1200070B505460C4600222248FFF703F900229D
:10D13000294620486668FFF7DBF8002221461D4893
:10D14000FFF7F8F86068B042F1D1E8781A4A014672
:10D150005043C01C8308880729D0184869783D22AD
:10D160000E4651430A463C3A7100891EC840D10F11
:10D1700080078918800F4910081AC018A978401E26
:10D1800008180F493C2248436178E1235143227833
:10D190001B015A438918A27810180818810D8302C0
:10D1A0006068084C0022201A1818514170BD0648CA
:10D1B000D4E70000D8060020B5050000A0AA990019
:10D1C00080510100FF0300005055440003207047C8
:10D1D00001480068704700002407002000B587B0B0
:10D1E000694605A8FFF79CFF0249096807B0401A85
:10D1F00000BD00002407002000B587B0694605A8DF
:10D20000FFF78EFF07B000BD10B5084C207800284E
:10D210000AD100F04BF8FF2101310548FFF70CF867
:10D2200000F0A2F80120207010BD000032000020A4
:10D23000D806002010B50C4C0021042000F042FB61
:10D2400021688868C0040ED5C868C0050BD5C868B9
:10D2500080221040FF388238C8600449900248613B
:10D260002046FEF7B5FF10BDD8060020000401409F
:10D2700070B50446FFF7B2FF211A0B4D0220285E5D
:10D28000C01C814201D9002100E00121042000F0EE
:10D2900019FB00F003FB012802D10220285E241AAA
:10D2A000204600F06DF870BD3200002030B52A49EC
:10D2B0002A4891B0002412C01F21016084600461DB
:10D2C0002749446141600838FFF762F86846C47036
:10D2D0000125457085700570002269461F48FFF7DB
